:020000000E28C8
:10000800FE00030EF6000408F7000A08F8007F084F
:10001800F900D92B0F289925EB009A25EC009B2590
:10002800ED009C25EE008313543084006B30892545
:10003800703084007530892583017B290000831284
:10004800D91B2728282836285508803AD0005D086B
:10005800803A5002031D32285C08540203183528E0
:10006800362849288312D91F3A283B2860285D087A
:10007800803AD0005508803A5002031D452854089C
:100088005C02031C482849286028C4308312BA003F
:10009800FF30BB003C30BC000030BD00202583127F
:1000A8003B08DD003A08DC000030322283124308A6
:1000B800D9004208D800D02883125508803AFF009A
:1000C8007F307F02031D6A28C430540203186D284C
:1000D8006E289028C4308312BA00FF30BB003C3031
:1000E800BC000030BD00202583123B08DD003A0823
:1000F800DC00C430D400FF30D5005508AF005408E8
:10010800AE0073248312E8000030322283124308C1
:10011800D9004208D800D02883125508803AFF0039
:1001280080307F02031D9A283D305402031C9D280D
:100138009E28C028C4308312BA00FF30BB003C3070
:10014800BC000030BD00202583123B08DD003A08C2
:10015800DC003C30D4000030D5005508AF0054080E
:10016800AE0073248312E800003032228312430861
:10017800D9004208D800D028831258085407D40060
:1001880059080318590A5507D5005508AF005408EF
:10019800AE0073248312E800DB1BD328D428E2289E
:1001A8005708803AD0005F08803A5002031DDE28C5
:1001B8005E0856020318E128E228FA280230583E61
:1001C8008400840A8313801FEA28EB2811298312EC
:1001D8005F08803AD0005708803A5002031DF6287D
:1001E80056085E02031CF928FA281129BF30831229
:1001F800BA00FF30BB00FB30BC00FF30BD0020253B
:1002080083123B08DF003A08DE00013032228312F5
:100218004308DB004208DA007A2983125708803A3B
:10022800FF007F307F02031D1B29BF3056020318D1
:100238001E291F294129BF308312BA00FF30BB0095
:10024800FB30BC00FF30BD00202583123B08DF00D7
:100258003A08DE00BF30D600FF30D7005708AF009D
:100268005608AE0073248312E9000130322283124B
:100278004308DB004208DA007A2983125708803ADB
:10028800FF007F307F02031D4B29FC305602031C00
:100298004E294F296A29BF308312BA00FF30BB00AC
:1002A800FB30BC00FF30BD00202583123B08DF0077
:1002B8003A08DE00FB30D600FF30D700013032228A
:1002C80083124308DB004208DA007A2983125A08AD
:1002D8005607D6005B0803185B0A5707D70057086C
:1002E800AF005608AE0073248312E90008004625C3
:1002F8008312D401D501D601D7015508AF0054089F
:10030800AE0073248312E8005708AF005608AE0009
:1003180073248312E90005110B308312D3002630B1
:10032800D2005D30D100D10B9729D20B9729D30B7E
:1003380097290000C4308312D400FF30D500BF30A5
:10034800D600FF30D7005508AF005408AE0073241C
:100358008312E8005708AF005608AE0073248312D2
:10036800E9000B308312D3002630D2005D30D10073
:10037800D10BBC29D20BBC29D30BBC2900003C30C3
:100388008312D4000030D500FB30D600FF30D700F0
:100398005508AF005408AE0073248312E8005708CC
:1003A800AF005608AE0073248312E9000B308312A5
:1003B800D3002630D2005D30D100D10BE129D20B19
:1003C800E129D30BE12900008312D401D501D6011C
:1003D800D7015508AF005408AE0073248312E80013
:1003E8005708AF005608AE0073248312E9000B309B
:1003F8008312D3002630D2005D30D100D10B022AFF
:10040800D20B022AD30B022A0000831205157403AB
:10041800031D0F2A102A172A7308031D142A152AE8
:10042800172AF40122207303031D1B2A1C2A0B2AF6
:1004380083120511D401D501D601D7015508AF00A3
:100448005408AE0073248312E8005708AF0056081A
:10045800AE0073248312E9000B2A0E288312CF0002
:1004680002304F02031C392A3A2A3D2AC201C3012D
:10047800AD2A0F30BA000030BB001E30BC0000307F
:10048800BD00202583123A08C400C5014408CB00EA
:100498004508CC004C08A7004B08A6004F08C4002C
:1004A8004407543E840083130008C500840A0008EA
:1004B800C6004F08C70047075C3E84000008C80014
:1004C800840A0008C90045084802A8004608031C19
:1004D800460A4902A900172383122708CE002608D6
:1004E800CD004D084E04031D7A2A7B2AA92A4F08FD
:1004F800C40044075C3E840083130008C500840AD6
:100508000008C6004F08C7004707543E840000088B
:10051800C800840A0008C9004908803ACA00460889
:10052800803A4A02031D9A2A4508480203189D2A60
:100538009E2AA42A01308312CD000030CE00A92AB9
:10054800FF308312CD00FF30CE004E08C3004D08A7
:10055800C20008000B2BFC3083128F0031308E0054
:1005680012119101F201F20A02307002031CBD2A35
:10057800BE2AC42AF0011030EF000508CF398500E3
:100588000508CF396F048500162BF03083128F00D1
:1005980079308E007008683E840083130008831643
:1005A8009200831212150230F200023083161202F2
:1005B8000318DF2AE02A162B83121211831205086A
:1005C800CF398500162B83128C101211F2010130DD
:1005D800FF007F08F0070508CF3985006F08F50090
:1005E8007507EF0002307002031CFB2AFC2A042B5B
:1005F800F0011030EF0092308F009F308E00162BE4
:10060800FF308F00FF308E00162BF201E22A7208AD
:10061800003A0319AF2A013A0319C92A033A031900
:10062800E72A092B08008312AB01A71F1C2B1D2BDF
:10063800242BA609A709A60A0319A70AAB01AB0A26
:10064800A91F272B282B312BA809A909A80A0319A8
:10065800A90A0130FF007F08AB06AC01AD012608EE
:1006680027040319382B392B702BAA01AA0A472B08
:1006780001300310A60DA70DFF3E031D3D2B0130D1
:10068800FF007F08AA07A71F4A2B4B2B3C2B0130E2
:100698000310AC0DAD0DFF3E031D4C2B270829029E
:1006A800031D582B26082802031C5B2B5C2B632B8D
:1006B8002608A8022708031CA903A9022C14013044
:1006C8000310A70CA60CFF3E031D642B0130AA02E1
:1006D800031D6F2B702B4B2B2B080319742B752BB9
:1006E8007A2BAC09AD09AC0A0319AD0A2D08A7008D
:1006F8002C08A60008008312B901B71F842B852B8C
:100708008C2BB609B709B60A0319B70AB901B90A91
:10071800B51F8F2B902B952BB409B509B40A031973
:10072800B50A3408350403199A2B9B2BCA2BB80138
:10073800B80AA92B01300310B40DB50DFF3E031DF7
:100748009F2B0130FF007F08B807B51FAC2BAD2BDE
:100758009E2B35083702031DB32B34083602031CC1
:10076800B62BB72BBD2B3408B6023508031CB703CC
:10077800B70201300310B50CB40CFF3E031DBE2BAD
:100788000130B802031DC92BCA2BAD2B3908031938
:10079800CE2BCF2BD42BB609B709B60A0319B70A43
:1007A8003708B5003608B40008000B1DDC2BDD2B1C
:1007B800102C0B11B230831281000130E0070318AE
:1007C800E10A0030E10700306102053003196002D8
:1007D800031CEF2BF02BF42BE001E101F401F40AE8
:1007E8000130FF007F08F10764307102031CFD2B04
:1007F800FE2B102CF1010130E2070318E30A003048
:10080800E30703306302843003196202031C0D2CD2
:100818000E2C102CF301F30A83120C1C142C152C2B
:10082800172C0C10AE2283128C1C1B2C1C2C212C78
:1008380012118C100508CF3985007908FF00780857
:100848008A0077088400760E8300FE0E7E0E09006B
:1008580000308312AC000030AB000030AA0000303A
:10086800A900201C382C392C502C2408A90725084D
:1008780003110318013E0319422CAA072608031185
:100888000318013E0319492CAB0727080311031865
:10089800013E0319502CAC070130A8000310A40D29
:1008A800A50DA60DA70DA80B522C01300310A30C03
:1008B800A20CA10CA00CFF3E031D5A2C23082204F5
:1008C80021042004031D692C6A2C352C2C08A30054
:1008D8002B08A2002A08A1002908A00008008312FA
:1008E8002F08803AFF007F307F02031D7D2CA63041
:1008F8002E020318802C812C872CA6308312AE0080
:10090800FF30AF009A2C83122F08803AFF00803006
:100918007F02031D912C5B302E02031C942C952C16
:100928009A2C5A308312AE000030AF00B4308312D4
:10093800A6000030A7002F08A1002E08A000FF3055
:10094800A2000030A300FA2483122108A90020087D
:10095800A8001723831226087F3EB0002708031833
:10096800013E003EB1003008080083126E08A30063
:100978006D08A2006C08A1006B08A0004130A70018
:10098800C630A6004E30A5006D30A4002C2483127A
:100998002308EE002208ED002108EC002008EB00F7
:1009A8003930EB07303003183130EC0700300318CA
:1009B8000130ED07003003180130EE076B08AF0077
:1009C8006C08B0006D08B1006E08B2001030B300BA
:1009D800320DB20CB10CB00CAF0CB30BEC2CFF30D9
:1009E8002F05AD007F303005AE0008008312A4014A
:1009F800A501201C002D012D072D2208A40703188E
:100A0800A50A2308A50701300310A20DA30DFF3E78
:100A1800031D082D01300310A10CA00CFF3E031D7F
:100A28000F2D20082104031D1A2D1B2DFD2C250830
:100A3800A1002408A000080083123A083C02BE0066
:100A48003B08031C3B0A3D02BF003E08013EB400C0
:100A58003F080318013E003EB500B92483122E0852
:100A6800B7002D08B6007F2383123A083407C00068
:100A78003B0803183B0A3507C1004108BB00400882
:100A8800BA00080083120F08A1000E08A0009125E3
:100A9800713083168F009F01033085006825752506
:100AA8007F25F001F1018312E201E301F301051151
:100AB800051285128B170B170B110C108C108B1647
:100AC80083168C140C1408008312950103309200CD
:100AD800F9308316920010308312EF00F201F00112
:100AE800080083129001CF309005F0308F007930E4
:100AF8008E001014080083168101811107308104CB
:100B0800B030831281008B16080064008001840ACB
:100B180004060319003404068A2D83122008EB000A
:100B28002108EC00ED01EE01080001340034003426
:020B3800003487
:08400000FF3FFF3FFF3FFF3FC0
:02400E00C43FAD
:00000001FF
