:020000000C28CA
:10000800FE00030EF1000408F2000A08F300462A75
:100018000D28C622D000C722D100C822D200C9228A
:10002800D3008313423084005030B622F601F70122
:10003800F8018301982A83124C084E0203182528D8
:1000480026288B28CC0147084306031D2D2846087F
:100058004206031D302831284F28CE308312B900BC
:10006800FF30BA003230BB000030BC0020228312BF
:100078003A08C7003908C6000530B9000030BA0090
:100088000A30BB000030BC00202283123908CE00A1
:10009800043085068F284308803AFF007F307F02AE
:1000A800031D5828CF30420203185B285C285D28BE
:1000B800312883124308803AFF0080307F02031DF5
:1000C800672832304202031C6A286B286C283128C2
:1000D80083124308803AC1004708803A4102031D51
:1000E80077284608420203187A287B28832801309B
:1000F8008312C2070318C30A0030C3078F28FF30D2
:100108008312C2070318C30AFF30C3078F280130C0
:10011800C1004108CC074D084F02031894289528C0
:10012800F828CD0149084506031D9C2848084406BF
:10013800031D9F28A028BC282D308312B900003049
:10014800BA005A30BB000030BC00202283123A08A3
:10015800C9003908C8000530B9000030BA000A30B3
:10016800BB000030BC00202283123908CF00FC28D5
:100178004908803AFF0080307F02031DC5282E30D1
:1001880048020318C828C928CA28A0288312490881
:10019800803AFF0080307F02031DD4285A3048027D
:1001A800031CD728D828D928A02883124508803AC4
:1001B800C1004908803A4102031DE4284808440266
:1001C8000318E728E828F02801308312C407031829
:1001D800C50A0030C507FC28FF308312C40703187E
:1001E800C50AFF30C507FC280130C1004108CD070A
:1001F80008008312B801B61F022903290A29B50984
:10020800B609B50A0319B60AB801B80AB41F0D2908
:100218000E291329B309B409B30A0319B40A330818
:1002280034040319182919294829B701B70A2729B5
:1002380001300310B30DB40DFF3E031D1D2901301D
:10024800F5007508B707B41F2A292B291C2934087B
:100258003602031D312933083502031C3429352998
:100268003B293308B5023408031CB603B602013033
:100278000310B40CB30CFF3E031D3C290130B70238
:10028800031D472948292B29380803194C294D29CA
:100298005229B509B609B50A0319B60A3608B400D1
:1002A8003508B300080000308312AB000030AA0004
:1002B8000030A9000030A800201C632964297B298C
:1002C8002408A807250803110318013E03196D29FE
:1002D800A907260803110318013E03197429AA0760
:1002E800270803110318013E03197B29AB070130C6
:1002F800F4000310A40DA50DA60DA70DF40B7D2980
:1003080001300310A30CA20CA10CA00CFF3E031D8E
:1003180085292308220421042004031D94299529F2
:1003280060292B08A3002A08A2002908A100280890
:10033800A000080083125308A3005208A200510825
:10034800A1005008A0004130A700C630A6004E30DA
:10035800A5006D30A400572183122308D30022087A
:10036800D2002108D1002008D0003930D007303021
:1003780003183130D107003003180130D20700309C
:1003880003180130D3075008AE005108AF005208D7
:10039800B0005308B1001030B200310DB10CB00CF0
:1003A800AF0CAE0CB20BD129FF302E05AC007F305C
:1003B8002F05AD00080083125408031DE429E52920
:1003C800032AD401D40AF0308F0079308E009101CD
:1003D8007608F0007007423E8400831300088316F5
:1003E80092008312121583161208031DFC29FD2999
:1003F8001F2A831212110508CF3985001F2AD4013C
:10040800FC308F0031308E008C1012110130F0005A
:100418007008F6077908F0007007F90002307602D4
:10042800031C172A182A1B2AF6011030F9000508A0
:10043800CF39790485000800831239083B02BD00D2
:100448003A08031C3A0A3C02BE003D08013EB300CC
:100458003E080318013E003EB4009E2183122D0879
:10046800B6002C08B500FD20831239083307BF00F9
:100478003A0803183A0A3407C0004008BA003F088F
:10048800B90008000B1D492A4A2A502AB2308312A3
:1004980081000B11F801F80A83120C1C542A552A02
:1004A800572A0C10DF2183128C1C5B2A5C2A602AD5
:1004B8008C100508CF39850073088A0072088400FB
:1004C800710E8300FE0E7E0E090083120008A00044
:1004D800A1012008F4002108F500BE22713083161E
:1004E8008F009F01033085008A22A222AC22F601E8
:1004F80083120515051685168B170B170B110C1093
:100508008C108B1683168C140C140800831295011A
:10051800033092001215F930831692001030F9005A
:100528008312D401D40A080069227803031D9D2A86
:100538009E2A992AF8011F20992A0C2883129001D3
:10054800CF309005F0308F0079308E0010140800FD
:1005580083168101811107308104B0308312810034
:100568008B16080064008001840A0406031900340D
:100578000406B72A74088312D0007508D100D20186
:0C058800D30108000134003400340034BA
:08400000FF3FFF3FFF3FFF3FC0
:02400E00C43FAD
:00000001FF
